{
  "_format": "hh-sol-artifact-1",
  "contractName": "EscrowFactory",
  "sourceName": "contracts/EscrowFactory.sol",
  "abi": [
    {
      "inputs": [
        {
          "internalType": "address",
          "name": "_paymentToken",
          "type": "address"
        }
      ],
      "stateMutability": "nonpayable",
      "type": "constructor"
    },
    {
      "anonymous": false,
      "inputs": [
        {
          "indexed": true,
          "internalType": "string",
          "name": "dealId",
          "type": "string"
        },
        {
          "indexed": false,
          "internalType": "address",
          "name": "vendor",
          "type": "address"
        },
        {
          "indexed": false,
          "internalType": "uint256",
          "name": "amount",
          "type": "uint256"
        },
        {
          "indexed": false,
          "internalType": "address",
          "name": "buyer",
          "type": "address"
        }
      ],
      "name": "EscrowCreated",
      "type": "event"
    },
    {
      "anonymous": false,
      "inputs": [
        {
          "indexed": true,
          "internalType": "string",
          "name": "dealId",
          "type": "string"
        },
        {
          "indexed": false,
          "internalType": "address",
          "name": "buyer",
          "type": "address"
        },
        {
          "indexed": false,
          "internalType": "uint256",
          "name": "amount",
          "type": "uint256"
        }
      ],
      "name": "EscrowRefunded",
      "type": "event"
    },
    {
      "anonymous": false,
      "inputs": [
        {
          "indexed": true,
          "internalType": "string",
          "name": "dealId",
          "type": "string"
        },
        {
          "indexed": false,
          "internalType": "address",
          "name": "vendor",
          "type": "address"
        },
        {
          "indexed": false,
          "internalType": "uint256",
          "name": "amount",
          "type": "uint256"
        }
      ],
      "name": "EscrowReleased",
      "type": "event"
    },
    {
      "inputs": [
        {
          "internalType": "string",
          "name": "dealId",
          "type": "string"
        },
        {
          "internalType": "address",
          "name": "vendorAddress",
          "type": "address"
        },
        {
          "internalType": "uint256",
          "name": "amount",
          "type": "uint256"
        }
      ],
      "name": "createEscrow",
      "outputs": [],
      "stateMutability": "nonpayable",
      "type": "function"
    },
    {
      "inputs": [
        {
          "internalType": "uint256",
          "name": "",
          "type": "uint256"
        }
      ],
      "name": "dealIds",
      "outputs": [
        {
          "internalType": "string",
          "name": "",
          "type": "string"
        }
      ],
      "stateMutability": "view",
      "type": "function"
    },
    {
      "inputs": [
        {
          "internalType": "string",
          "name": "",
          "type": "string"
        }
      ],
      "name": "escrows",
      "outputs": [
        {
          "internalType": "string",
          "name": "dealId",
          "type": "string"
        },
        {
          "internalType": "address",
          "name": "vendorAddress",
          "type": "address"
        },
        {
          "internalType": "uint256",
          "name": "amount",
          "type": "uint256"
        },
        {
          "internalType": "address",
          "name": "buyer",
          "type": "address"
        },
        {
          "internalType": "bool",
          "name": "funded",
          "type": "bool"
        },
        {
          "internalType": "bool",
          "name": "released",
          "type": "bool"
        },
        {
          "internalType": "bool",
          "name": "refunded",
          "type": "bool"
        }
      ],
      "stateMutability": "view",
      "type": "function"
    },
    {
      "inputs": [
        {
          "internalType": "string",
          "name": "dealId",
          "type": "string"
        }
      ],
      "name": "getEscrow",
      "outputs": [
        {
          "components": [
            {
              "internalType": "string",
              "name": "dealId",
              "type": "string"
            },
            {
              "internalType": "address",
              "name": "vendorAddress",
              "type": "address"
            },
            {
              "internalType": "uint256",
              "name": "amount",
              "type": "uint256"
            },
            {
              "internalType": "address",
              "name": "buyer",
              "type": "address"
            },
            {
              "internalType": "bool",
              "name": "funded",
              "type": "bool"
            },
            {
              "internalType": "bool",
              "name": "released",
              "type": "bool"
            },
            {
              "internalType": "bool",
              "name": "refunded",
              "type": "bool"
            }
          ],
          "internalType": "struct EscrowFactory.Escrow",
          "name": "",
          "type": "tuple"
        }
      ],
      "stateMutability": "view",
      "type": "function"
    },
    {
      "inputs": [],
      "name": "getTotalEscrows",
      "outputs": [
        {
          "internalType": "uint256",
          "name": "",
          "type": "uint256"
        }
      ],
      "stateMutability": "view",
      "type": "function"
    },
    {
      "inputs": [],
      "name": "owner",
      "outputs": [
        {
          "internalType": "address",
          "name": "",
          "type": "address"
        }
      ],
      "stateMutability": "view",
      "type": "function"
    },
    {
      "inputs": [],
      "name": "paymentToken",
      "outputs": [
        {
          "internalType": "contract IERC20",
          "name": "",
          "type": "address"
        }
      ],
      "stateMutability": "view",
      "type": "function"
    },
    {
      "inputs": [
        {
          "internalType": "string",
          "name": "dealId",
          "type": "string"
        }
      ],
      "name": "refund",
      "outputs": [],
      "stateMutability": "nonpayable",
      "type": "function"
    },
    {
      "inputs": [
        {
          "internalType": "string",
          "name": "dealId",
          "type": "string"
        }
      ],
      "name": "release",
      "outputs": [],
      "stateMutability": "nonpayable",
      "type": "function"
    },
    {
      "inputs": [
        {
          "internalType": "address",
          "name": "newOwner",
          "type": "address"
        }
      ],
      "name": "transferOwnership",
      "outputs": [],
      "stateMutability": "nonpayable",
      "type": "function"
    }
  ],
  "bytecode": "0x608060405234801561001057600080fd5b5060405161150538038061150583398101604081905261002f916100bc565b6001600160a01b0381166100895760405162461bcd60e51b815260206004820152601560248201527f496e76616c696420746f6b656e20616464726573730000000000000000000000604482015260640160405180910390fd5b60008054336001600160a01b031991821617909155600180549091166001600160a01b03929092169190911790556100ec565b6000602082840312156100ce57600080fd5b81516001600160a01b03811681146100e557600080fd5b9392505050565b61140a806100fb6000396000f3fe608060405234801561001057600080fd5b506004361061009e5760003560e01c8063c6620db311610066578063c6620db31461013d578063f2fde38b1461015d578063f34e372314610172578063f93a1c2214610185578063fe5f2e881461019857600080fd5b80633013ce29146100a35780633f4dbda2146100d35780635cc9f864146100e45780638da5cb5b1461010a578063969631d51461011d575b600080fd5b6001546100b6906001600160a01b031681565b6040516001600160a01b0390911681526020015b60405180910390f35b6003546040519081526020016100ca565b6100f76100f2366004610e41565b6101ab565b6040516100ca9796959493929190610f38565b6000546100b6906001600160a01b031681565b61013061012b366004610fd6565b610295565b6040516100ca9190611018565b61015061014b366004611091565b6103f2565b6040516100ca91906110aa565b61017061016b3660046110e0565b61049e565b005b610170610180366004610fd6565b610549565b6101706101933660046110fb565b6107d0565b6101706101a6366004610fd6565b610bb7565b80516020818301810180516002825292820191909301209152805481906101d190611157565b80601f01602080910402602001604051908101604052809291908181526020018280546101fd90611157565b801561024a5780601f1061021f5761010080835404028352916020019161024a565b820191906000526020600020905b81548152906001019060200180831161022d57829003601f168201915b5050506001840154600285015460039095015493946001600160a01b0391821694909350908116915060ff600160a01b8204811691600160a81b8104821691600160b01b9091041687565b6040805160e08101825260608082526000602083018190528284018190529082018190526080820181905260a0820181905260c082015290516002906102de9085908590611191565b90815260200160405180910390206040518060e001604052908160008201805461030790611157565b80601f016020809104026020016040519081016040528092919081815260200182805461033390611157565b80156103805780601f1061035557610100808354040283529160200191610380565b820191906000526020600020905b81548152906001019060200180831161036357829003601f168201915b505050918352505060018201546001600160a01b03908116602083015260028301546040830152600390920154918216606082015260ff600160a01b8304811615156080830152600160a81b83048116151560a0830152600160b01b909204909116151560c090910152905092915050565b6003818154811061040257600080fd5b90600052602060002001600091509050805461041d90611157565b80601f016020809104026020016040519081016040528092919081815260200182805461044990611157565b80156104965780601f1061046b57610100808354040283529160200191610496565b820191906000526020600020905b81548152906001019060200180831161047957829003601f168201915b505050505081565b6000546001600160a01b031633146104d15760405162461bcd60e51b81526004016104c8906111a1565b60405180910390fd5b6001600160a01b0381166105275760405162461bcd60e51b815260206004820181905260248201527f4e6577206f776e65722063616e6e6f74206265207a65726f206164647265737360448201526064016104c8565b600080546001600160a01b0319166001600160a01b0392909216919091179055565b6000546001600160a01b031633146105735760405162461bcd60e51b81526004016104c8906111a1565b600060028383604051610587929190611191565b908152604051908190036020019020600381015490915060ff600160a01b909104166105e85760405162461bcd60e51b815260206004820152601060248201526f115cd8dc9bddc81b9bdd08199bdd5b9960821b60448201526064016104c8565b6003810154600160a81b900460ff16156106375760405162461bcd60e51b815260206004820152601060248201526f105b1c9958591e481c995b19585cd95960821b60448201526064016104c8565b6003810154600160b01b900460ff16156106865760405162461bcd60e51b815260206004820152601060248201526f105b1c9958591e481c99599d5b99195960821b60448201526064016104c8565b60038101805460ff60a81b1916600160a81b1790556001805490820154600283015460405163a9059cbb60e01b81526001600160a01b039283166004820152602481019190915291169063a9059cbb906044016020604051808303816000875af11580156106f8573d6000803e3d6000fd5b505050506040513d601f19601f8201168201806040525081019061071c91906111e2565b6107685760405162461bcd60e51b815260206004820152601960248201527f5472616e7366657220746f2076656e646f72206661696c65640000000000000060448201526064016104c8565b8282604051610778929190611191565b60408051918290038220600184015460028501546001600160a01b0390911684526020840152917f70bd880944db14759ff3be78c89049519998171ea8821154b9c218e09c5b495691015b60405180910390a2505050565b600081116108205760405162461bcd60e51b815260206004820152601d60248201527f416d6f756e74206d7573742062652067726561746572207468616e203000000060448201526064016104c8565b60028484604051610832929190611191565b9081526040519081900360200190206003015460ff600160a01b90910416156108a95760405162461bcd60e51b815260206004820152602360248201527f457363726f7720616c72656164792065786973747320666f722074686973206460448201526219585b60ea1b60648201526084016104c8565b6001600160a01b0382166108f85760405162461bcd60e51b8152602060048201526016602482015275496e76616c69642076656e646f72206164647265737360501b60448201526064016104c8565b6001546040516323b872dd60e01b8152336004820152306024820152604481018390526001600160a01b03909116906323b872dd906064016020604051808303816000875af115801561094f573d6000803e3d6000fd5b505050506040513d601f19601f8201168201806040525081019061097391906111e2565b6109db5760405162461bcd60e51b815260206004820152603360248201527f546f6b656e207472616e73666572206661696c65642e20436865636b2062616c60448201527230b731b29030b7321030b63637bbb0b731b29760691b60648201526084016104c8565b6040518060e0016040528085858080601f01602080910402602001604051908101604052809392919081815260200183838082843760009201829052509385525050506001600160a01b038516602083015260408083018590523360608401526001608084015260a0830182905260c09092015251600290610a609087908790611191565b90815260405190819003602001902081518190610a7d9082611253565b506020820151600180830180546001600160a01b039384166001600160a01b031990911617905560408401516002840155606084015160039384018054608087015160a088015160c0909801511515600160b01b0260ff60b01b19981515600160a81b029890981661ffff60a81b19911515600160a01b026001600160a81b03199093169490961693909317179190911692909217939093179055805491820181556000527fc2575a0e9e593c00f959f8c92f12db2869c3395a3b0502d05e2516446f71f85b01610b4f848683611313565b508383604051610b60929190611191565b604080519182900382206001600160a01b0385168352602083018490523383830152905190917f5de6e776f6e1b784a9dfed50655c3f4cdae1b2b3b631715ce79bbc4586d81c8f919081900360600190a250505050565b6000546001600160a01b03163314610be15760405162461bcd60e51b81526004016104c8906111a1565b600060028383604051610bf5929190611191565b908152604051908190036020019020600381015490915060ff600160a01b90910416610c565760405162461bcd60e51b815260206004820152601060248201526f115cd8dc9bddc81b9bdd08199bdd5b9960821b60448201526064016104c8565b6003810154600160a81b900460ff1615610ca55760405162461bcd60e51b815260206004820152601060248201526f105b1c9958591e481c995b19585cd95960821b60448201526064016104c8565b6003810154600160b01b900460ff1615610cf45760405162461bcd60e51b815260206004820152601060248201526f105b1c9958591e481c99599d5b99195960821b60448201526064016104c8565b600381018054600160b01b60ff60b01b19821617909155600154600283015460405163a9059cbb60e01b81526001600160a01b039384166004820152602481019190915291169063a9059cbb906044016020604051808303816000875af1158015610d63573d6000803e3d6000fd5b505050506040513d601f19601f82011682018060405250810190610d8791906111e2565b610dcc5760405162461bcd60e51b81526020600482015260166024820152751499599d5b99081d1bc8189d5e595c8819985a5b195960521b60448201526064016104c8565b8282604051610ddc929190611191565b60408051918290038220600384015460028501546001600160a01b0390911684526020840152917f1065ba1a5e4d9d087a309d86a9ce14c67c7dbef9aa278a382c31e408d826cbdd91016107c3565b634e487b7160e01b600052604160045260246000fd5b600060208284031215610e5357600080fd5b813567ffffffffffffffff80821115610e6b57600080fd5b818401915084601f830112610e7f57600080fd5b813581811115610e9157610e91610e2b565b604051601f8201601f19908116603f01168101908382118183101715610eb957610eb9610e2b565b81604052828152876020848701011115610ed257600080fd5b826020860160208301376000928101602001929092525095945050505050565b6000815180845260005b81811015610f1857602081850181015186830182015201610efc565b506000602082860101526020601f19601f83011685010191505092915050565b60e081526000610f4b60e083018a610ef2565b6001600160a01b0398891660208401526040830197909752509390951660608401529015156080830152151560a082015291151560c090920191909152919050565b60008083601f840112610f9f57600080fd5b50813567ffffffffffffffff811115610fb757600080fd5b602083019150836020828501011115610fcf57600080fd5b9250929050565b60008060208385031215610fe957600080fd5b823567ffffffffffffffff81111561100057600080fd5b61100c85828601610f8d565b90969095509350505050565b602081526000825160e06020840152611035610100840182610ef2565b9050602084015160018060a01b0380821660408601526040860151606086015280606087015116608086015250506080840151151560a084015260a0840151151560c084015260c0840151151560e08401528091505092915050565b6000602082840312156110a357600080fd5b5035919050565b6020815260006110bd6020830184610ef2565b9392505050565b80356001600160a01b03811681146110db57600080fd5b919050565b6000602082840312156110f257600080fd5b6110bd826110c4565b6000806000806060858703121561111157600080fd5b843567ffffffffffffffff81111561112857600080fd5b61113487828801610f8d565b90955093506111479050602086016110c4565b9396929550929360400135925050565b600181811c9082168061116b57607f821691505b60208210810361118b57634e487b7160e01b600052602260045260246000fd5b50919050565b8183823760009101908152919050565b60208082526021908201527f4f6e6c79206f776e65722063616e2063616c6c20746869732066756e6374696f6040820152603760f91b606082015260800190565b6000602082840312156111f457600080fd5b815180151581146110bd57600080fd5b601f82111561124e57600081815260208120601f850160051c8101602086101561122b5750805b601f850160051c820191505b8181101561124a57828155600101611237565b5050505b505050565b815167ffffffffffffffff81111561126d5761126d610e2b565b6112818161127b8454611157565b84611204565b602080601f8311600181146112b6576000841561129e5750858301515b600019600386901b1c1916600185901b17855561124a565b600085815260208120601f198616915b828110156112e5578886015182559484019460019091019084016112c6565b50858210156113035787850151600019600388901b60f8161c191681555b5050505050600190811b01905550565b67ffffffffffffffff83111561132b5761132b610e2b565b61133f836113398354611157565b83611204565b6000601f841160018114611373576000851561135b5750838201355b600019600387901b1c1916600186901b1783556113cd565b600083815260209020601f19861690835b828110156113a45786850135825560209485019460019092019101611384565b50868210156113c15760001960f88860031b161c19848701351681555b505060018560011b0183555b505050505056fea26469706673582212200ab843273ed28aac604d952287887a6b2e32be8ebf789e7cf8ebebfa15e56cb364736f6c63430008140033",
  "linkReferences": {},
  "deployedLinkReferences": {}
}