{
  "_format": "hh-sol-artifact-1",
  "contractName": "EscrowFactory",
  "sourceName": "contracts/EscrowFactory.sol",
  "abi": [
    {
      "inputs": [],
      "stateMutability": "nonpayable",
      "type": "constructor"
    },
    {
      "anonymous": false,
      "inputs": [
        {
          "indexed": true,
          "internalType": "string",
          "name": "dealId",
          "type": "string"
        },
        {
          "indexed": false,
          "internalType": "address",
          "name": "vendor",
          "type": "address"
        },
        {
          "indexed": false,
          "internalType": "uint256",
          "name": "amount",
          "type": "uint256"
        },
        {
          "indexed": false,
          "internalType": "address",
          "name": "buyer",
          "type": "address"
        }
      ],
      "name": "EscrowCreated",
      "type": "event"
    },
    {
      "anonymous": false,
      "inputs": [
        {
          "indexed": true,
          "internalType": "string",
          "name": "dealId",
          "type": "string"
        },
        {
          "indexed": false,
          "internalType": "address",
          "name": "buyer",
          "type": "address"
        },
        {
          "indexed": false,
          "internalType": "uint256",
          "name": "amount",
          "type": "uint256"
        }
      ],
      "name": "EscrowRefunded",
      "type": "event"
    },
    {
      "anonymous": false,
      "inputs": [
        {
          "indexed": true,
          "internalType": "string",
          "name": "dealId",
          "type": "string"
        },
        {
          "indexed": false,
          "internalType": "address",
          "name": "vendor",
          "type": "address"
        },
        {
          "indexed": false,
          "internalType": "uint256",
          "name": "amount",
          "type": "uint256"
        }
      ],
      "name": "EscrowReleased",
      "type": "event"
    },
    {
      "inputs": [
        {
          "internalType": "string",
          "name": "dealId",
          "type": "string"
        },
        {
          "internalType": "address",
          "name": "vendorAddress",
          "type": "address"
        },
        {
          "internalType": "uint256",
          "name": "amount",
          "type": "uint256"
        }
      ],
      "name": "createEscrow",
      "outputs": [],
      "stateMutability": "payable",
      "type": "function"
    },
    {
      "inputs": [
        {
          "internalType": "uint256",
          "name": "",
          "type": "uint256"
        }
      ],
      "name": "dealIds",
      "outputs": [
        {
          "internalType": "string",
          "name": "",
          "type": "string"
        }
      ],
      "stateMutability": "view",
      "type": "function"
    },
    {
      "inputs": [
        {
          "internalType": "string",
          "name": "",
          "type": "string"
        }
      ],
      "name": "escrows",
      "outputs": [
        {
          "internalType": "string",
          "name": "dealId",
          "type": "string"
        },
        {
          "internalType": "address",
          "name": "vendorAddress",
          "type": "address"
        },
        {
          "internalType": "uint256",
          "name": "amount",
          "type": "uint256"
        },
        {
          "internalType": "address",
          "name": "buyer",
          "type": "address"
        },
        {
          "internalType": "bool",
          "name": "funded",
          "type": "bool"
        },
        {
          "internalType": "bool",
          "name": "released",
          "type": "bool"
        },
        {
          "internalType": "bool",
          "name": "refunded",
          "type": "bool"
        }
      ],
      "stateMutability": "view",
      "type": "function"
    },
    {
      "inputs": [
        {
          "internalType": "string",
          "name": "dealId",
          "type": "string"
        }
      ],
      "name": "getEscrow",
      "outputs": [
        {
          "components": [
            {
              "internalType": "string",
              "name": "dealId",
              "type": "string"
            },
            {
              "internalType": "address",
              "name": "vendorAddress",
              "type": "address"
            },
            {
              "internalType": "uint256",
              "name": "amount",
              "type": "uint256"
            },
            {
              "internalType": "address",
              "name": "buyer",
              "type": "address"
            },
            {
              "internalType": "bool",
              "name": "funded",
              "type": "bool"
            },
            {
              "internalType": "bool",
              "name": "released",
              "type": "bool"
            },
            {
              "internalType": "bool",
              "name": "refunded",
              "type": "bool"
            }
          ],
          "internalType": "struct EscrowFactory.Escrow",
          "name": "",
          "type": "tuple"
        }
      ],
      "stateMutability": "view",
      "type": "function"
    },
    {
      "inputs": [],
      "name": "getTotalEscrows",
      "outputs": [
        {
          "internalType": "uint256",
          "name": "",
          "type": "uint256"
        }
      ],
      "stateMutability": "view",
      "type": "function"
    },
    {
      "inputs": [],
      "name": "owner",
      "outputs": [
        {
          "internalType": "address",
          "name": "",
          "type": "address"
        }
      ],
      "stateMutability": "view",
      "type": "function"
    },
    {
      "inputs": [
        {
          "internalType": "string",
          "name": "dealId",
          "type": "string"
        }
      ],
      "name": "refund",
      "outputs": [],
      "stateMutability": "nonpayable",
      "type": "function"
    },
    {
      "inputs": [
        {
          "internalType": "string",
          "name": "dealId",
          "type": "string"
        }
      ],
      "name": "release",
      "outputs": [],
      "stateMutability": "nonpayable",
      "type": "function"
    },
    {
      "inputs": [
        {
          "internalType": "address",
          "name": "newOwner",
          "type": "address"
        }
      ],
      "name": "transferOwnership",
      "outputs": [],
      "stateMutability": "nonpayable",
      "type": "function"
    }
  ],
  "bytecode": "0x608060405234801561001057600080fd5b50600080546001600160a01b0319163317905561134a806100326000396000f3fe6080604052600436106100865760003560e01c8063c6620db311610059578063c6620db314610146578063f2fde38b14610173578063f34e372314610195578063f93a1c22146101b5578063fe5f2e88146101c857600080fd5b80633f4dbda21461008b5780635cc9f864146100ae5780638da5cb5b146100e1578063969631d514610119575b600080fd5b34801561009757600080fd5b506002546040519081526020015b60405180910390f35b3480156100ba57600080fd5b506100ce6100c9366004610da3565b6101e8565b6040516100a59796959493929190610e9a565b3480156100ed57600080fd5b50600054610101906001600160a01b031681565b6040516001600160a01b0390911681526020016100a5565b34801561012557600080fd5b50610139610134366004610f38565b6102d2565b6040516100a59190610f7a565b34801561015257600080fd5b50610166610161366004610ff3565b61042f565b6040516100a5919061100c565b34801561017f57600080fd5b5061019361018e366004611042565b6104db565b005b3480156101a157600080fd5b506101936101b0366004610f38565b610586565b6101936101c336600461105d565b6107ea565b3480156101d457600080fd5b506101936101e3366004610f38565b610b3d565b805160208183018101805160018252928201919093012091528054819061020e906110b9565b80601f016020809104026020016040519081016040528092919081815260200182805461023a906110b9565b80156102875780601f1061025c57610100808354040283529160200191610287565b820191906000526020600020905b81548152906001019060200180831161026a57829003601f168201915b5050506001840154600285015460039095015493946001600160a01b0391821694909350908116915060ff600160a01b8204811691600160a81b8104821691600160b01b9091041687565b6040805160e08101825260608082526000602083018190528284018190529082018190526080820181905260a0820181905260c0820152905160019061031b90859085906110f3565b90815260200160405180910390206040518060e0016040529081600082018054610344906110b9565b80601f0160208091040260200160405190810160405280929190818152602001828054610370906110b9565b80156103bd5780601f10610392576101008083540402835291602001916103bd565b820191906000526020600020905b8154815290600101906020018083116103a057829003601f168201915b505050918352505060018201546001600160a01b03908116602083015260028301546040830152600390920154918216606082015260ff600160a01b8304811615156080830152600160a81b83048116151560a0830152600160b01b909204909116151560c090910152905092915050565b6002818154811061043f57600080fd5b90600052602060002001600091509050805461045a906110b9565b80601f0160208091040260200160405190810160405280929190818152602001828054610486906110b9565b80156104d35780601f106104a8576101008083540402835291602001916104d3565b820191906000526020600020905b8154815290600101906020018083116104b657829003601f168201915b505050505081565b6000546001600160a01b0316331461050e5760405162461bcd60e51b815260040161050590611103565b60405180910390fd5b6001600160a01b0381166105645760405162461bcd60e51b815260206004820181905260248201527f4e6577206f776e65722063616e6e6f74206265207a65726f20616464726573736044820152606401610505565b600080546001600160a01b0319166001600160a01b0392909216919091179055565b6000546001600160a01b031633146105b05760405162461bcd60e51b815260040161050590611103565b6000600183836040516105c49291906110f3565b908152604051908190036020019020600381015490915060ff600160a01b909104166106255760405162461bcd60e51b815260206004820152601060248201526f115cd8dc9bddc81b9bdd08199bdd5b9960821b6044820152606401610505565b6003810154600160a81b900460ff16156106745760405162461bcd60e51b815260206004820152601060248201526f105b1c9958591e481c995b19585cd95960821b6044820152606401610505565b6003810154600160b01b900460ff16156106c35760405162461bcd60e51b815260206004820152601060248201526f105b1c9958591e481c99599d5b99195960821b6044820152606401610505565b60038101805460ff60a81b1916600160a81b179055600181015460028201546040516000926001600160a01b031691908381818185875af1925050503d806000811461072b576040519150601f19603f3d011682016040523d82523d6000602084013e610730565b606091505b50509050806107815760405162461bcd60e51b815260206004820152601960248201527f5472616e7366657220746f2076656e646f72206661696c6564000000000000006044820152606401610505565b83836040516107919291906110f3565b60408051918290038220600185015460028601546001600160a01b0390911684526020840152917f70bd880944db14759ff3be78c89049519998171ea8821154b9c218e09c5b495691015b60405180910390a250505050565b8034146108395760405162461bcd60e51b815260206004820152601c60248201527f53656e742076616c7565206d75737420657175616c20616d6f756e74000000006044820152606401610505565b600081116108895760405162461bcd60e51b815260206004820152601d60248201527f416d6f756e74206d7573742062652067726561746572207468616e20300000006044820152606401610505565b6001848460405161089b9291906110f3565b9081526040519081900360200190206003015460ff600160a01b90910416156109125760405162461bcd60e51b815260206004820152602360248201527f457363726f7720616c72656164792065786973747320666f722074686973206460448201526219585b60ea1b6064820152608401610505565b6001600160a01b0382166109615760405162461bcd60e51b8152602060048201526016602482015275496e76616c69642076656e646f72206164647265737360501b6044820152606401610505565b6040518060e0016040528085858080601f01602080910402602001604051908101604052809392919081815260200183838082843760009201829052509385525050506001600160a01b0385166020830152604080830185905233606084015260016080840181905260a0840183905260c090930191909152516109e890879087906110f3565b90815260405190819003602001902081518190610a059082611193565b506020820151600180830180546001600160a01b039384166001600160a01b03199091161790556040840151600280850191909155606085015160039094018054608087015160a088015160c0909801511515600160b01b0260ff60b01b19981515600160a81b029890981661ffff60a81b19911515600160a01b026001600160a81b0319909316979096169690961717949094169290921793909317909155805491820181556000527f405787fa12a823e0f2b7631cc41b3ba8828b3321ca811111fa75cd3aa3bb5ace01610adc848683611253565b508383604051610aed9291906110f3565b604080519182900382206001600160a01b0385168352602083018490523391830191909152907f5de6e776f6e1b784a9dfed50655c3f4cdae1b2b3b631715ce79bbc4586d81c8f906060016107dc565b6000546001600160a01b03163314610b675760405162461bcd60e51b815260040161050590611103565b600060018383604051610b7b9291906110f3565b908152604051908190036020019020600381015490915060ff600160a01b90910416610bdc5760405162461bcd60e51b815260206004820152601060248201526f115cd8dc9bddc81b9bdd08199bdd5b9960821b6044820152606401610505565b6003810154600160a81b900460ff1615610c2b5760405162461bcd60e51b815260206004820152601060248201526f105b1c9958591e481c995b19585cd95960821b6044820152606401610505565b6003810154600160b01b900460ff1615610c7a5760405162461bcd60e51b815260206004820152601060248201526f105b1c9958591e481c99599d5b99195960821b6044820152606401610505565b600381018054600160b01b60ff60b01b1982161790915560028201546040516000926001600160a01b031691908381818185875af1925050503d8060008114610cdf576040519150601f19603f3d011682016040523d82523d6000602084013e610ce4565b606091505b5050905080610d2e5760405162461bcd60e51b81526020600482015260166024820152751499599d5b99081d1bc8189d5e595c8819985a5b195960521b6044820152606401610505565b8383604051610d3e9291906110f3565b60408051918290038220600385015460028601546001600160a01b0390911684526020840152917f1065ba1a5e4d9d087a309d86a9ce14c67c7dbef9aa278a382c31e408d826cbdd91016107dc565b634e487b7160e01b600052604160045260246000fd5b600060208284031215610db557600080fd5b813567ffffffffffffffff80821115610dcd57600080fd5b818401915084601f830112610de157600080fd5b813581811115610df357610df3610d8d565b604051601f8201601f19908116603f01168101908382118183101715610e1b57610e1b610d8d565b81604052828152876020848701011115610e3457600080fd5b826020860160208301376000928101602001929092525095945050505050565b6000815180845260005b81811015610e7a57602081850181015186830182015201610e5e565b506000602082860101526020601f19601f83011685010191505092915050565b60e081526000610ead60e083018a610e54565b6001600160a01b0398891660208401526040830197909752509390951660608401529015156080830152151560a082015291151560c090920191909152919050565b60008083601f840112610f0157600080fd5b50813567ffffffffffffffff811115610f1957600080fd5b602083019150836020828501011115610f3157600080fd5b9250929050565b60008060208385031215610f4b57600080fd5b823567ffffffffffffffff811115610f6257600080fd5b610f6e85828601610eef565b90969095509350505050565b602081526000825160e06020840152610f97610100840182610e54565b9050602084015160018060a01b0380821660408601526040860151606086015280606087015116608086015250506080840151151560a084015260a0840151151560c084015260c0840151151560e08401528091505092915050565b60006020828403121561100557600080fd5b5035919050565b60208152600061101f6020830184610e54565b9392505050565b80356001600160a01b038116811461103d57600080fd5b919050565b60006020828403121561105457600080fd5b61101f82611026565b6000806000806060858703121561107357600080fd5b843567ffffffffffffffff81111561108a57600080fd5b61109687828801610eef565b90955093506110a9905060208601611026565b9396929550929360400135925050565b600181811c908216806110cd57607f821691505b6020821081036110ed57634e487b7160e01b600052602260045260246000fd5b50919050565b8183823760009101908152919050565b60208082526021908201527f4f6e6c79206f776e65722063616e2063616c6c20746869732066756e6374696f6040820152603760f91b606082015260800190565b601f82111561118e57600081815260208120601f850160051c8101602086101561116b5750805b601f850160051c820191505b8181101561118a57828155600101611177565b5050505b505050565b815167ffffffffffffffff8111156111ad576111ad610d8d565b6111c1816111bb84546110b9565b84611144565b602080601f8311600181146111f657600084156111de5750858301515b600019600386901b1c1916600185901b17855561118a565b600085815260208120601f198616915b8281101561122557888601518255948401946001909101908401611206565b50858210156112435787850151600019600388901b60f8161c191681555b5050505050600190811b01905550565b67ffffffffffffffff83111561126b5761126b610d8d565b61127f8361127983546110b9565b83611144565b6000601f8411600181146112b3576000851561129b5750838201355b600019600387901b1c1916600186901b17835561130d565b600083815260209020601f19861690835b828110156112e457868501358255602094850194600190920191016112c4565b50868210156113015760001960f88860031b161c19848701351681555b505060018560011b0183555b505050505056fea26469706673582212208339d513d895e28df2b12a78560e95694db76528c814df627f5f6238707576bd64736f6c63430008130033",
  "linkReferences": {},
  "deployedLinkReferences": {}
}